:100000000C942A000C9447000C9447000C94470071
:100010000C9447000C9447000C9447000C94470044
:100020000C9447000C9447000C9447000C94470034
:100030000C9447000C9463010C9447000C949201BB
:100040000C9447000C9447000C9447000C94470014
:100050000C94470011241FBECFE5D8E0DEBFCDBF12
:1000600010E0A0E6B0E0EAE6F5E002C005900D92EF
:10007000A837B107D9F710E0A8E7B0E001C01D929A
:10008000AC39B107E1F70E9478000C94B3020C94EC
:100090000000282F90918200992369F480918400B8
:1000A000882349F42B3018F42093840008958FE7B7
:1000B0000E945401089530918400931788F4E92F29
:1000C000F0E0E858FF4F2083892F8F5F80938200F4
:1000D000381769F481E080938300109284000895BA
:1000E0008EE70E94540110928400109282000895BD
:1000F0000F931F93CF93DF930E94E6010E9442016A
:1001000089E490E00E945E010E94BB0181E060E012
:1001100041E00E94FD0181E060E040E00E94470272
:1001200088E893E128EC30E0F9013197F1F7019785
:10013000D9F701E0C8ECD0E081E060E0402F0E94F8
:10014000470280E197E2FE013197F1F70197D9F775
:10015000809183008130A1F48091780080518230B9
:1001600058F488E790E0609182000E94E4008823C0
:1001700019F48FE70E9454011092830010928200BC
:100180000E94FC0080919100813091F410E008C041
:10019000E12FF0E0EA57FF4F80810E9454011F5F7A
:1001A000809190001817A0F3109290001092910087
:1001B00080919200813019F081E00827BDCF80E066
:1001C0000E943901FFCF0895FC018081803131F414
:1001D000623081F48181843068F402C0813151F44D
:1001E000F0939500E09394006093960081E08093F3
:1001F0009300089580E008951F93109193001130AB
:1002000071F580918500882351F5E0919400F0917B
:1002100095008081803181F48181833001F580E512
:1002200080938600109390001093910084E090E0FA
:100230006AEA0E94C30109C0813151F481E58093CB
:10024000860010939000109391001093920007C0C5
:100250008FE7809386001093900010939100109286
:1002600093001092960010929500109294001F91A6
:100270000895883010F4886081BD089588E181BDBB
:1002800011BC089510BC83E389B988E98AB986E86E
:1002900080BD08958BB182958695817008958BB14C
:1002A000881F8827881F08955D9BFECF8CB908950D
:1002B000FC015F9BFECF8CB18083089590939A00E0
:1002C0008093990008951F920F920FB60F921124F8
:1002D0002F933F934F935F936F937F938F939F934E
:1002E000AF93BF93EF93FF93E0919900F0919A0041
:1002F000309711F08CB10995FF91EF91BF91AF91BB
:100300009F918F917F916F915F914F913F912F912D
:100310000F900FBE0F901F901895909398008093A8
:10032000970008951F920F920FB60F9211242F93EA
:100330003F934F935F936F937F938F939F93AF936D
:10034000BF93EF93FF93E0919700F091980030975F
:1003500009F00995FF91EF91BF91AF919F918F9116
:100360007F916F915F914F913F912F910F900FBEB1
:100370000F901F9018958FB780688FBF08958FB723
:100380008F778FBF089524E08030920710F080E0CF
:1003900008959FBB8EBB6DBBE199FECFE29AE19AB7
:1003A00080E29EE40197F1F781E00895FB0124E0EB
:1003B0008030920710F080E008959FBB8EBBE199DA
:1003C000FECFE09A8DB3808381E0089581E0809331
:1003D0009B000895E82F843070F480919B00813059
:1003E00051F4F0E0EE0FFF1FE059FF4F0190F08154
:1003F000E02D6083089580E00895E82F843090F523
:10040000683080F580919B00813061F54423A9F02C
:10041000413041F5F0E0EE0FFF1FE059FF4F019032
:10042000F081E02D208181E090E002C0880F991FCB
:100430006A95E2F7282B208313C0F0E0EE0FFF1F30
:10044000E059FF4F0190F081E02D208181E090E0A4
:1004500002C0880F991F6A95E2F7809582238083F6
:1004600081E0089580E00895E82F843070F4809151
:100470009B00813051F4F0E0EE0FFF1FE859FF4F71
:100480000190F081E02D6083089580E00895E82FC9
:10049000843090F5683080F580919B00813061F563
:1004A0004423A9F0413041F5F0E0EE0FFF1FE85979
:1004B000FF4F0190F081E02D208181E090E002C0AB
:1004C000880F991F6A95E2F7282B208313C0F0E06C
:1004D000EE0FFF1FE859FF4F0190F081E02D2081C2
:1004E00081E090E002C0880F991F6A95E2F780953D
:1004F0008223808381E0089580E00895E82FDB0166
:10050000843080F480919B00813061F4F0E0EE0F44
:10051000FF1FE05AFF4F0190F081E02D80818C9306
:1005200081E0089580E00895E82FDA018430C8F46E
:100530006830B8F480919B00813099F4F0E0EE0FC0
:10054000FF1FE05AFF4F0190F081E02D808190E085
:1005500002C0959587956A95E2F781708C9381E04A
:0A056000089580E00895F894FFCF9D
:10056A0039003600330030003B00380035003200D5
:08057A003A00370034003100A3
:00000001FF
